:100000006F00F05E130000001300000013000000FA
:100010001300000013000000130000001300000094
:100020001300000013000000130000001300000084
:08003000130000007300100032
:100038006FF09FFC000000006F0080436F0080435A
:1000480000000000000000000000000000000000A8
:100058000000000000000000000000000000000098
:100068006FF09FF9000000006FF01FF9000000001A
:100078006FF09FF86FF05FF86FF01FF86FF0DFF721
:100088006FF09FF76FF05FF76F0080156F008015B6
:100098006F00E0176F0040186F0040186FF0DFF531
:1000A8006FF09FF56FF05FF56F0040396FF0DFF488
:1000B8006FF09FF46FF05FF46F000017000000000E
:1000C8000000000000000000000000006F00401564
:1000D8006F00C0156F0020186F00401A6F00801E57
:1000E8006F0080256F0020276F0040296FF0DFF038
:1000F8006FF09FF06FF05FF06FF01FF06FF0DFEFC1
:100108006FF09FEF6F00E0296F00002F6F00C03283
:100118006F0040116FF05FEE6FF01FEE6FF0DFEDD4
:1001280000000000000000000000000000000000C7
:080138000000000000000000BF
:100140003D432A876373C3029377F700BDEFADE5A4
:10015000937606FF3D8ABA960CC34CC30CC74CC7B6
:100160004107E36BD7FE11E28280B306C3408A06E3
:100170009702000096966780A6002307B700A306A3
:10018000B7002306B700A305B7002305B700A304F3
:10019000B7002304B700A303B7002303B700A302EB
:1001A000B7002302B700A301B7002301B700A300E3
:1001B000B7002300B700828093F5F50F9396850072
:1001C000D58D93960501D58D61B79396270097023B
:1001D000000096968682E78086FA9680C1171D8F6A
:1001E0003E96E374C3F8A5B7730020300945EF00CD
:1001F000B0618547631AF50083C7D18181EBEF10A9
:1002000070320945EF00306273002030E39BA7FE97
:10021000EF100031FDB71145EF00F06073002030A2
:1002200073002030730020307300203073002030C2
:1002300073002030411122C6373401409305000875
:10024000130504C0EF10000919C593050008130534
:1002500004C0EF10E0093244410173002030411125
:1002600022C6373401408545130504C0EF108006CF
:1002700011C58545130504C0EF10800732444101C4
:1002800073002030411122C6373401409305000429
:10029000130504C0EF10000419C5930500041305ED
:1002A00004C0EF10E0043734014093050002130549
:1002B00004C0EF10200219C593050002130504C005
:1002C000EF1000033244410173002030411122C677
:1002D000373401408945130504C0EF00B07F11C5D4
:1002E0008945130504C0EF10A00037340140914543
:1002F000130504C0EF00107E11C59145130504C01D
:10030000EF00107F37340140A145130504C0EF0012
:10031000707C11C5A145130504C0EF00707D373412
:100320000140C145130504C0EF00D07A11C5C14595
:10033000130504C0EF00D07B32444101730020302C
:10034000854537050040EF00F07801C98545370540
:100350000040EF00F079EF10D01173002030411110
:1003600022C637040040854513050440EF0090760F
:1003700011C5854513050440EF00907732444101D3
:1003800073002030411122C6371400408545130503
:100390000480EF00307411C5854513050480EF001B
:1003A00030753244410173002030411122C6374478
:1003B00001409305505213050480EF10E0080DCD65
:1003C0009305505213050480EF10400C1305048070
:1003D000EF1020061374F50F930710038145630790
:1003E000F400930720036317F40085451305F0021A
:1003F000EF10D03E22855D2E324441017300203043
:10040000411122C637440040930550521305044061
:10041000EF10800301CD9305505213050440EF10F7
:10042000E00683C7D18199E7EF10B00A3244410159
:10043000730020300547E39BE7FEEF100009FDB78E
:10044000730020304111096522C6EF0050388547FE
:10045000631BF5002A840965EF00703983C7D181D9
:1004600099E7EF10900D3244410173002030E39C76
:1004700087FEEF10400CC5BF7300203001A039711A
:1004800006DE22DC26DA4AD84ED652D456D25AD0CC
:100490005ECE62CC66CA6AC86EC6EF10103FEF101F
:1004A000B05B93060031054685452145EF103025A8
:1004B000930600310546854513059004EF1030245E
:1004C000EF10801EEF00F07D1145EF10D014992938
:1004D00085450145EF10F0548546054689451305CD
:1004E0005003EF109036EF10D03A8965938565235D
:1004F00013058008EF10706EB757000083AD475C9E
:10050000B757000003AB875C83ABC75CB7570000ED
:1005100003AA075D83AA475DB757000003A9875D5B
:1005200083A9C75DB757000003A4075E83A4475E95
:1005300013058008EF10507703A5C183EE85EF30D7
:100540000035EF309016AA850545752A03A58183ED
:10055000EF30B015AA8509457D2291451145EF1070
:100560003015EF3080005A86DE86EF2060345286E8
:10057000D686EF20E033EF30503023A0A184EF3057
:1005800010254A86CE86EF20A032AE862A86A68522
:100590002285EF20607DEF209077AA854145A52236
:1005A000375600001306865E81456545EF10002230
:1005B00003A5C183EF30B021AE86894715472A864F
:1005C000814513057003EF1000293756000013060C
:1005D000065F8D456545EF10601F03A58183EF30F1
:1005E000101FAE86894715472A868D45130570036F
:1005F000EF106026375600001306865F9945654563
:10060000EF10C01C03A50184EF30701C2A86AE8653
:1006100089471547994513057003EF10C02337A587
:10062000070013050512EF107027C922012E09B724
:10063000814711C53307F5000347070019E33E85DD
:1006400082808507C5BF29C9B9C563FBA502338769
:10065000C500B2876366A7027D57FD176394E70262
:1006600082803387F500834607003307F50085074E
:100670002300D700139707014183E364C7FE8280FC
:100680008147CDBFB386F50003C60600B306F5006B
:100690002380C600D9B701458280834715000347F0
:1006A0000500A207D98F13978700A183D98FC207AE
:1006B00003472500C18303453500A207D98FA20750
:1006C0005D8D828083C7318D0547630CF702411130
:1006D00022C42E84AA85014506C691268545812619
:1006E0008145352E8545252E814511C08545052E30
:1006F0002A868D451D455926B240224405454101B3
:1007000082800545828083C7318D05476308F704E1
:10071000411122C42E84AA85014506C609268945B1
:10072000FD2C8145ED2C9145DD2C93558401C52C84
:100730009355040193F5F50FDD249355840093F54B
:10074000F50FF12C9375F40FD92C2A868D451D4594
:100750003526B2402244054541018280054582800C
:1007600083C7318D0547630AF702411122C42E84E5
:10077000AA85014506C66524914555248145452431
:100780008545712CA285612C2A868D451D45FD2449
:10079000B2402244054541018280054582800345DF
:1007A00005008280034505008280C5BD03A701883E
:1007B00083A641861306F7FF6309D6026377D70045
:1007C0003387E64059466362E6021387F18763E6A2
:1007D000E6001387818623A2E18603A7418693065C
:1007E000170023A2D1862300A700828079714ECE04
:1007F00052CC56CA06D622D426D24AD05AC85EC691
:10080000F94A938941849384018183D70400138931
:10081000018163FBFA0403570900994763F9E70E66
:1008200001449949938B4184130A5005930AA00A05
:10083000130B600203560900018E63C4C90442060B
:1008400041822310C90061C693854184A295225438
:10085000B25092540259F249624AD24A424BB24BC8
:10086000138541844561C5B3892355D503D404005C
:10087000930714002390F4004E9481232300A400D6
:1008800059B7330574010347050093071400630645
:10089000EA0013940701418071BF3387FB000347CF
:1008A0000700E398EAFE13072400B307770183C724
:1008B000070093F7F70F81C713140701E9BF9307E8
:1008C0004400DE9783C4070093075400DE9783C774
:1008D0000700A2049D07BE94C204C18063759B00FB
:1008E0000D0442044DBFE34C96F49385F4FFC2051A
:1008F000C1819D22A2949387F4FFDE9783C70700EE
:10090000E310F5FE2285DD2A1394040169B7B25085
:10091000225492540259F249624AD24A424BB24B93
:10092000456182809387818623A2F18623A0F18886
:10093000A389018C7D57A388E18C828083C7118DA8
:1009400011476316F700814521456F1020698280A9
:10095000AA8501456F10F00A41118545054506C677
:100960005D33B240A9450945410171BB6915137753
:10097000F50FC14663E0E60AAE873E85956793872B
:1009800007600A073E971C43411106C6B28582875D
:10099000293DAA851945853B09A8013DAA851D4524
:1009A000DDBF0935AA852545653B7D151335150045
:1009B000B24041018280D53BAA852945E9BFF53384
:1009C000AA852D45C9BFD533AA853145E9B7F13B85
:1009D000AA853545C9B7D13BAA8541456DBFF133DD
:1009E000AA8545454DBFD133AA8549456DB7753BAD
:1009F000AA854D454DB7553BAA85514569BF45333D
:100A0000AA855545C13155B74D33AA85594561B7BA
:100A1000014579BF01458280594582808280938754
:100A2000A188AA97050542052380B70041818280ED
:100A3000411122C4938741882A8419053E9526C214
:100A400006C6B284093133059400B24022444205FF
:100A500092444181410182800147814793160701F9
:100A6000C18263E4B6003E858280B306E50083C69A
:100A700006000507B69793F7F70FCDB7411126C2C9
:100A80009307500522C44AC02382F18806C6138901
:100A900041889307A0FAA300F9002301B900A3013C
:100AA000A900935786002302F90013047600937778
:100AB000F60F1906931506014204C181138541887A
:100AC000A302F9004180493F9307F4FF3E992300B8
:100AD000A90011C84169938441887D197D1442049D
:100AE000418063182401B2402244924402494101EA
:100AF000828003C504008504A13DCDB7938641845F
:100B000013073500369703470700B9461377F70FE9
:100B100063ECE62895660A079386066736971843BE
:100B20005D71A6C286C693844184A2C4CAC04EDE4B
:100B300052DC56DA5AD85ED662D466D26AD06ECE0D
:100B4000AA870287138721818346070093874188FC
:100B500085EA2383070085472300F70005468D4576
:100B600001452644B64096440649F259625AD25A83
:100B7000425BB25B225C925C025DF24D6161FDBD45
:100B800005472383E700D9BFB75400001385C46A23
:100B9000EFF01FAA13140501418022869385C46AD1
:100BA0001385A188EFF03FAAB75400001385446B6A
:100BB000EFF01FA8131605019385446B418213754E
:100BC000F40FBD3537540000AA841305846CEFF090
:100BD0003FA6131605019305846C418213F5F40FAB
:100BE000813D37540000AA841305046DEFF05FA423
:100BF000131605019305046D418213F5F40F0D3DA5
:100C000037540000AA841305846DEFF07FA21316F9
:100C100005019305846D418213F5F40F113D37549E
:100C20000000AA841305046EEFF09FA013160501BF
:100C30009305046E418213F5F40FDD3B3754000039
:100C4000AA841305446EEFF0BF9E1316050141827E
:100C50009305446E13F5F40FE13B1376F50F8D45C4
:100C6000054501B701468D450945E5BD930765007A
:100C7000A69783C70700014693F7F70FA388F18C67
:100C80008D450D45F9BD05472389E18CB6402644C5
:100C900096440649F259625AD25A425BB25B225CD0
:100CA000925C025DF24D616182800547A381E1861D
:100CB000F1BF130745002697034A070013075500A5
:100CC000269703470700220A156B336AEA00814C16
:100CD00013046500930B4B64E3FA4CFB3309940156
:100CE00093072900A69783C907009307390026991F
:100CF00003461900A697139C890032C683C90700D2
:100D0000034D0900834A2900834D390031333246AF
:100D1000910993064B6401479375F70FBA8763F8FF
:100D2000A50083C5060005078906E317BDFE8607F3
:100D3000DE9783C71700639BC700A20A3386BA01F8
:100D400042064182930549006A850D31E699E29990
:100D5000939C090193DC0C0141B72644B6409644AC
:100D60000649F259625AD25A425BB25B225C925CEB
:100D7000025DF24D6161CDB6130765009D072697B0
:100D8000A697264403450700B64096440649F25903
:100D9000625AD25A425BB25B225C925C025DF24DB7
:100DA00083C5070061619DB9828003A5418683A741
:100DB00001881D8D3335A000828083A6018803A79A
:100DC000418601456384E6021387F18763E6E60006
:100DD0001387818623A0E18803A701889306170063
:100DE00023A0D188034507001375F50F8280970172
:100DF0000020938121A8174100201301A12017553D
:100E000000001305E5E897F5FF1F9385A51F1386DE
:100E1000018163FAC5008322050023A05500110556
:100E20009105E3EAC5FE138501819725002093858E
:100E3000E5246377B500232005001105E36DB5FEB9
:100E40009302800873A0023097F2FFFF9382021F83
:100E500093E2120073905230EF10004897F2FFFFB8
:100E6000938222627390123473002030B7270140BE
:100E700093870740631EF500411185451305002047
:100E800006C61529B240814513050020410125A160
:100E900082805C413707F1FF1307F7EF7D8FDC415C
:100EA0009441A207D58FD98F5CC11C4537F7F1FF5C
:100EB0001307D77FD4457D8F9C49D58F94458606EF
:100EC000D58FD98F1CC55C55370710FF7D177D8FD7
:100ED00083C74501FD1793F7F70FD207D98F5CD56C
:100EE00082801C4589C593E717001CC58280F99B49
:100EF000EDBF1C4593E787001CC5828008450D8126
:100F0000058982801C4593E747001CC582800845FF
:100F1000098105898280A54763F7B7048D47138748
:100F200065FF3307F7020328C5009D47B397E70025
:100F300093C7F7FFB3F70701B396E600DD8E54C5FC
:100F4000994763E3C70495477D163306F60258595F
:100F5000FD47B397C70093C7F7FFF98F3396C500D6
:100F60005D8E50D982800D473387E5020328050145
:100F70009D47B397E70093C7F7FFB3F70701B39611
:100F8000E600DD8E14C96DBFB14763E2C702954725
:100F900065163306F6021859FD47B397C70093C785
:100FA000F7FFF98F3396C5005D8E10D98280954783
:100FB0004D163306F6025855FD47B397C70093C741
:100FC000F7FFF98FB395C500DD8D4CD5828093175F
:100FD000350063DA0700B707024083A707407D8D1D
:100FE0003335A0008280B70702409C43CDBF9317E2
:100FF000350063D70700B707024023A2A7408280CD
:10100000B7070240C8C38280B70701401387074073
:1010100083A70740584B698F09C77D8D3335A000E2
:10102000828001458280B707014023AAA7408280C1
:101030009C4513F7070113F8F70001C7D84133683F
:10104000E80083D5050013F7F50F39C31841814631
:10105000854E3D4F930F800293028004214E3396BC
:10106000DE00B3F8C500631116039398260033130E
:101070001F011343F3FF3377E300B318180133E77D
:10108000E800639FF70550C98506E39AC6FD18C1BD
:101090001307F00F6375B70454412146854E3D4F49
:1010A000930F800293028004414EB398CE0033F731
:1010B00015016392E8021317260001173313EF009E
:1010C0001343F3FFB376D3003317E800D98E639D43
:1010D000F701232A15010506E319C6FD54C18280D4
:1010E000E39457FA10C94DB7E39757FE232815012B
:1010F000DDB719C20CC982804CC9828093874181B7
:1011000094430347050089E683472500920731A8E9
:10111000944305466391C6048347250003461500A2
:1011200092076314D60093E707F8B7E600E093F759
:10113000F70FBA962380F6408546935757003397AA
:10114000E6005441ADC6938707048A07B7E600E07E
:10115000B69798C382808C4389466393D5028346B1
:101160001500834725006365D6008A06B69779BFC8
:101170009386E6038A06B69793F7F70F920765B74B
:1011800090438D46631ED600834615008347250095
:101190006364D6008606D9BF9386C6078606E1BF7C
:1011A00094439147E39AF6F88347150085B79387F0
:1011B000070661BFB7160240DC4251777D17F98FF1
:1011C0005D8DC8C28280371702405C439146B18B67
:1011D0006385D700A1466388D706B7177A0093873F
:1011E00007201CC1371602405C4237070020130756
:1011F00007009183BD8BBA9783C607001C41B3D704
:10120000D7005CC15442A1829D8ABA9683C606006B
:10121000B3D6D70014C55442AD829D8A3697034792
:101220000700B3D7E7005CC558423983937637008F
:101230003707002013070707369703470700B3D780
:10124000E7021CC982805C435443C983BD8B13965B
:10125000F60089076349060037173D00130707901A
:10126000B387E702BDBF58439316E700E3C606FE07
:1012700037177A0013070720E5B799C537170240DB
:101280001C4F5D8D08CF8280B7170240984F1345E1
:10129000F5FF798D88CF828099C5371702405C4F62
:1012A0005D8D48CF8280B7170240D84F1345F5FFB8
:1012B000798DC8CF828099C5371702405C475D8D14
:1012C00048C78280B7170240D8471345F5FF798D8C
:1012D000C8C78280835705010355C500ED8F4205BD
:1012E000418189C76D8D3335A000828001458280A0
:1012F00093C5F5FFC205C1812318B50082808356CE
:101300000501F577FD17F58F83D66500397122DC6D
:1013100006DED58F03D7C5002318F5008356C50018
:10132000FD779387379FF58F83D645002A842EC695
:10133000D58F83D68500D58F83D6A500D58F23166C
:10134000F50083574501C207C18393F7F7CFD98FC3
:10135000231AF5006808853DB74701409387078049
:10136000B245631EF404A2578356C4006547B38791
:10137000E702C206C186984163D5060406070356F4
:10138000C4004206B3D7E702130740064186B3D62E
:10139000E702B3F7E7029206635706028E079387C8
:1013A0002703B3D7E70213F77700B367D700C20765
:1013B000C1832314F400F250625421618280925759
:1013C00065B70A076DBF920793872703B3D7E70274
:1013D000BD8BD58FE9BF81C98357C5000967D98FF8
:1013E0002316F50082800357C500F977FD17F98FA2
:1013F000C5BF13F7F50F85471583B395B70063197C
:10140000F7009307C500984301CED98D8CC3828025
:10141000894693074501E318D7FE93070501E5B711
:1014200093C5F5FFF98DDDB793F5F51F2312B500D0
:101430008280035545001375F51F82800355050012
:101440006D8D3335A000828013F7F50F8546158327
:10145000B397B6006313D7020357C500F98F03573C
:10146000050001454207418381CB0545A181B315A4
:10147000B5006D8F3335E000828089466315D70053
:1014800003570501E1BF03574501C9BFA181854746
:10149000B397B70093C7F7FFC207C1832310F500C6
:1014A0008280411193064031054685451305F002BF
:1014B00006C6EF00D024B24093064031054685456C
:1014C0001305D00241016F009023996783A74799C4
:1014D0001387918183D54700834707003726002073
:1014E00093060660BE96850793F7F70F2380B60034
:1014F0002300F7008546639BD70083460660930769
:10150000500A638EF6002300070082800D46639820
:10151000C700B727002023000700A381D76082807F
:101520000967B70702401307874BB8C7F84313672B
:101530001700F8C382800547238CE180B70602407C
:10154000FC4241677917F98FFCC282809967138743
:1015500007981847A1661306000854CB916614CB70
:1015600083A607981307000293870798D8CA9305A4
:10157000000225477D171377F70F09E79C4721677E
:1015800098CB82801318850113588841635908004D
:1015900090CA8CCA0605CCCA1375F50FE1BFD0CA34
:1015A000CDBF9967138707981847A16613060008EF
:1015B00054CB916654CB83A60798130700029387F8
:1015C0000798D8CA9305000225477D171377F70FB0
:1015D00009E79C47216798CB82801318850113582F
:1015E00088416359080090CA8CCA0605CCCA137595
:1015F000F50FE1BFD0CACDBF41119317850106C6D3
:1016000022C4E18763D10702B7660000196693869A
:101610004692130606919305900D37650000130559
:101620000593EF2090439D4763FCB700B766000029
:10163000196693864696130606919305A00DF1BF91
:10164000938505FB2A8413F5F50FA13F135544003C
:1016500013650501B9371375F4002244B240410106
:1016600089B7011122CC4AC84EC606CE26CAAA891D
:101670001304000B1309800B228525370545153708
:1016800041450537930400084E85FD14C135EDFC36
:1016900005041374F40FE31124FFF2406244D244B2
:1016A0004249B249056182804111930600310546E5
:1016B0008545154506C622C426C2EF005004930690
:1016C0000031014685451D45EF007003930600314A
:1016D000054685451305D004EF00700293060031DE
:1016E000054685451305E004EF0070018545054674
:1016F000930600311305F004EF007000996703A70B
:1017000007989387079880479306000214CB896453
:10171000316544C813050535EF0050181305E00A7C
:1017200004C841350145B53D4145A53D13050004BB
:101730008D3D13051008B5351305F0079D351305CC
:10174000100A85351305800CA93D1305600A913DEB
:101750001305800AB9351305F003A1351305300DC3
:10176000893501453D3D1305500D253D1305000804
:101770000D3D1305900D35351305100F1D3513055F
:10178000A00D05354945313D1305B00D193D130533
:101790000004013D130500022935094519351305DB
:1017A000D00801355145F53B1305400ADD3B1305D3
:1017B000600AC53B1305F00AED3301455D3522444F
:1017C000B24092448145014541013DB5797152CC09
:1017D000156A26D24AD04ECE56CA5AC85EC606D61A
:1017E00022D462C4AA84AE89B28B0149130BE007EC
:1017F000994A130A8A6EB3872B018387070089EF02
:10180000B250225492540259F249624AD24A424B8F
:10181000B24B224C45618280811713F4F70F637637
:101820009B00850993F9F90F814433045403CE8555
:101830002685D933014CB3078C00D29703C5070026
:10184000050C2933E3195CFF9904050993F4F40F9F
:101850001379F90F4DB75D71A6C2CAC04EDE52DCD6
:1018600056DAB68986C6A2C499462A8AAE8A3289D1
:10187000994463E4F60093F4F70FA946BA8763F33B
:10188000E600A94701468146CE854A8513F4F70F45
:10189000EF00B076B76500004A86CE869385059244
:1018A0006351050868002D229347F4FF1375F50F67
:1018B00093F7F70F130495FF3E948504620493F4A5
:1018C000F40F6184B387F440930600021377F40F9A
:1018D000B304F700E204E1841018B29463480404EE
:1018E000014681464A85CE85EF0030711C183E9432
:1018F0009307D0026344050093070002230EF4FC13
:10190000700093F5FA0F1375FA0F238E04FC7D3DDA
:10191000B640264496440649F259625AD25A616149
:1019200082801305D1006D200505BDBF130417008B
:101930006204238ED4FC618451BF1357F541B34731
:10194000A700998F05470D8FB3E6C7023385E500E1
:101950001375F50FB3C7C702938606032380D5001E
:1019600099C38505D5B782802A8719C23686F1B713
:10197000054625480D8E3375D7029377F50F6373AF
:10198000A8029387770393F7F70F2380F500338539
:10199000C500B357D7021375F50F6368D7008505E7
:1019A0003E87D1BF93870703F9BF8280B307B50095
:1019B0008581AA95FD176313B50082808306050013
:1019C0000387070005052380D700A30FE5FEDDB7D9
:1019D00075713EC3BC183EC4B7670000D2CCD6CAEE
:1019E00003AA879783AAC797CECEE2C4B73930300F
:1019F0000D6CA2D4A6D2CAD086D6DAC8DEC6E6C29C
:101A0000EAC06EDEAA84B2DCB6DE3AC142C546C781
:101A100001441309500293890903130C0C038387B3
:101A200005008DE32285B650265496540659F64992
:101A3000664AD64A464BB64B264C964C064DF25D4E
:101A400049618280938C1500639F2721838715004D
:101A5000130760066386E70E634BF70613078005DE
:101A6000638AE71C634BF700638C271F130760042E
:101A70006388E70C93851C005DB713073006638706
:101A8000E70A13074006E397E7FEA24729466C00E2
:101A900083AB0700138747003AC45E85793D2A8BE4
:101AA00063DC0B001C18AA971307D002130B150058
:101AB000238EE7FC137BFB0FDA856800C53D268586
:101AC0005A866C00EF20E07FDA945A9465B71307CA
:101AD0000007638CE7166340F70213079006E3865E
:101AE000E7FA1307F006E397E7F8A247A146138742
:101AF00047003AC415AA130750076382E712130779
:101B000080076389E71213073007E395E7F6A247DA
:101B10001387470094433AC4A28733878740369798
:101B200003070700631E07103E84A9B7A247138767
:101B300047009C433AC42380F400850405041DBF7C
:101B4000A2479D07E19B03AB070083AB47001387C8
:101B500087005A85DE853AC4EF10F01429466C00E0
:101B6000AA8DE13B2A8D014681465A85DE85EF002C
:101B7000D048635B05001C18EA971307D002050DD7
:101B8000238EE7FC137DFD0FEA85680005356A8624
:101B90006C002685EF20E0726E85EF10101D2A86FE
:101BA000AE865A85DE85EF10201C5286D686EF0061
:101BB000305001468146EA942A8B229DAE8BEF007D
:101BC000303D15C5DE855A85EF10F00D29466C00B5
:101BD000AD337C00AA97154793060003636DA700F9
:101BE00005052380D7001375F50F8507C5BF4EC6C1
:101BF000231881011945130415001374F40F1C18E0
:101C0000AA971307E002A2856800238EE7FC793BC0
:101C100022866C002685EF20C06A6A94A1BDA24787
:101C2000A946138747003AC4884301466C002D3B00
:101C30002A8B59B5A247C146138747003AC4EDB76E
:101C40002380E40085078504C9BDA1456800B93B30
:101C5000268521466C00EF20C066A104210419BD31
:101C600023802401D9BD2380F40005048504AE8CB3
:101C700011B50111996722CC03A4879826CA4AC8D6
:101C80004EC606CE114718C8A1475CC858C81CC824
:101C9000B724002018C8938444605CC8938904105A
:101CA0001149232A24018145294519242390A400A0
:101CB000232824018904E39634FFF2406244B727C5
:101CC000002005472382E770D2444249B2490561AA
:101CD0008280996783A747991387C18183D547007D
:101CE000834707003736002093068606BE96850791
:101CF00093F7F70F2380B6002300F7008546639B18
:101D0000D700834686069307500A638CF6002300AB
:101D1000070082800D466396C70023000700A38D4D
:101D2000D18082800567B707024013070796B8C7BE
:101D3000F84313671700F8C382800547238DE180BD
:101D4000B7060240FC4241677917F98FFCC28280D6
:101D500009E58146014681455DA20547E30BE5FEA5
:101D60000947E308E5FE0D47E305E5FE1147E302F9
:101D7000E5FE1547E30FE5FC1947E30CE5FC1D47BD
:101D8000E309E5FC21476318E500814601468145EA
:101D900013050002D1B725476318E50081460146C7
:101DA0008145130510024DBF29476318E5008146A0
:101DB000014681451305000445B72D476318E5002A
:101DC0008146014681451305100479B731476318F0
:101DD000E50081460146814513052004B5BF35471E
:101DE0006318E50081460146814513053004ADB70F
:101DF00039476318E50081460146814513054004D3
:101E0000A1BF3D476318E5008146014681451305A2
:101E1000500499B78280797122D485452A841305AC
:101E2000402006D626D2EFF04FC52285153703A7EE
:101E30008182B7C70105938707D0316563E3E70067
:101E4000216537240140EFF0EFB613050440EFF0B1
:101E5000EF81B7070E003ECA2C00854713050440EA
:101E6000230EF10002C402C602C802CCEFF06F825A
:101E7000854513050440EFF0CF8613050440EFF0CD
:101E80004F87930404402685EFF04F876DFD1305BF
:101E9000044037240140EFF0EF861304044022850C
:101EA000EFF0EF866DFDB25022549254456182806E
:101EB000411122C43724014026C28146AE84054622
:101EC0009375F50F1305044006C6EFF0CF84832702
:101ED000844037075000D98F2324F440372701402E
:101EE00083270740898BEDDF0325C744B240224496
:101EF0003355950042059244418141018280130788
:101F00000008630CE50C797122D426D24AD04ECE5B
:101F100052CC9357550006D613FA77001374F50187
:101F2000B684B2892E89B5E385451145EFF0EFB44B
:101F3000854733948700420441802312810063194E
:101F4000F90093970401C183A18391E38D473EC4B7
:101F500099670A0A93870798D29793F4F40F26C6D5
:101F600084434C002685EFF0AF8C85476317F9005A
:101F70004E86A2852685EFF0CF97B2502254925418
:101F80000259F249624A4561828005476395E7003C
:101F90008545214561BF09476395E7008545414572
:101FA00071B70D476396E700854513050002BDBF75
:101FB00011476396E70085451305000485BF154763
:101FC0006396E7008545130500088DB71947E3912F
:101FD000E7F685451305001091BF828093573500C1
:101FE00013F7C701996793870798BA9705479C43EA
:101FF0003315A7006394E50088CB8280C8CB82802C
:10200000135735009376C70119671307079836975A
:102010001C43984785473395A700798D3335A00039
:10202000828037E700E01C43FD76FD8E1C41D58F92
:102030001CC15C43544192079183D58F5CC1FD570D
:102040002320F7182322F718828001112304A1000E
:10205000280006CEA304B1002305C10036C6EFF068
:10206000EF8903C7E18185476315F7001385018276
:102070004D3FF240056182801841B7E700E023A0A0
:10208000E710584123A2E71082800547238FE180A3
:10209000828013850182238F0180F9BFB7F700E0AA
:1020A00023A0070003A78182B7167A009386062033
:1020B0003357D70223820700A38207002383070038
:1020C000A38307003305A702054798C337F700E04D
:1020D0005C43E37FF5FE8280411106C605E185473A
:1020E0006390F50A9306803101462545093D9146E6
:1020F000014681452945B240410111B58947631F19
:10210000F500930680310146854513056002C53B05
:1021100091460146814513057002F1BFC147631D19
:10212000F50093068031014685450945C93B914636
:10213000014681450D45C1B7930700026310F502C2
:1021400093068031014685451305A002EFF03FDB81
:102150009146014681451305B00271BF93072002E5
:102160006310F50293060031014685451305A0046E
:10217000EFF0FFD89146014681451305B004A5BF95
:10218000B24041018280797122D426D24AD04ECE0B
:1021900006D62A84AE843289B68921E58545116543
:1021A000EFF0AF8DCE854A85053FB7070C003EC4E2
:1021B0009967938707990A043E9400408A8526C050
:1021C000228502C223160100EFF06F932285854518
:1021D000EFF06FA0B250225492540259F249456177
:1021E000828085476318F500854537050200EFF0CA
:1021F000AF8A4DBF8947E317F5FA854537050400D7
:10220000FDB799670A0593870799AA97984383575B
:10221000070093F70704E5DFC205C1812312B70069
:102220008280996713172500938707990111BA9740
:1022300022CC2A8488432EC605469305505206CEEA
:10224000EFF02F9B130554036244B246F24001465F
:10225000814505616FF07FDFB7170240DC43371718
:102260007A0013070720C983BD8BB387E70237279E
:10227000F40013070740F165854601469385052064
:102280000145BA9723A4F182FDBD011199674AC89F
:1022900003A9079922CC26CA4EC606CEAE89B284BF
:1022A0000144634A9400F240624426854249D24484
:1022B000B24905618280930500044A85EFF00F98CA
:1022C0007DD9B3878900838507004A850504C20547
:1022D000C181EFF06F95F1B7B71702409843B70689
:1022E000FFF841111367170098C3D843370602005F
:1022F000758FD8C39843B706F7FEFD16758F98C340
:102300009843B706FCFFFD16758F98C3D843B706F0
:1023100081FFFD16758FD8C337079F0098C702C489
:1023200002C69843C166558F98C3B716024013077B
:1023300000509C42F18F3EC6A24785073EC4B2477B
:1023400081E7A247E397E7FEB71702409C43139744
:10235000E7006352070885473EC632478547631A40
:10236000F706B72702409843B706C1FFFD1613676B
:10237000070198C39843719B98C39843136727003C
:1023800098C3B7170240D843D8C3D843D8C3D8435B
:10239000D8C3D843758FD8C3D843B7062500558F07
:1023A000D8C39843B7060001558F98C39843931636
:1023B0006700E3DD06FED843B7160240719BD8C321
:1023C000D84313672700D8C32147DC42B18BE39E73
:1023D000E7FE4101828002C649B7011106CE22CC38
:1023E0002AC62E8405223245552CA9241355840073
:1023F000752489241375F40F55242D2C6244F24062
:102400000561B9A2411106C622C426C232844AC05F
:10241000AA842E89C52826855124292C1355890084
:10242000B52C092C1375F90F952C2924E128138557
:1024300014001375F50F9D24F52A0545E92C23009A
:10244000A4000545C92CA300A4000545E9242301E7
:10245000A4000545C924A301A40005456D2C230251
:10246000A40001454D2CA302A4002244B240924492
:1024700002494101F1A8411106C6EF107028B76763
:10248000000083A5479AEF108040B767000083A53E
:10249000879AEF10A014B767000083A5C79AEF10C2
:1024A0004068B24041018280411122C4373400208B
:1024B0001306C406B96506C6B1378347C4061304BC
:1024C000C40603451400A2075D8D753723AEA182B3
:1024D0008347340003454400A2075D8DEF1050226E
:1024E000B767000083A5079AEF10603AB76700004E
:1024F00083A5879AEF10800EB240224423ACA182BC
:1025000041018280411193064031054685451305FE
:10251000D00206C6EFF0BF9E85451305D002EFF04E
:10252000FFAB85451305F002EFF05FAB1545EFF00B
:10253000FFB681451305D002EFF05FAA1545EFF015
:10254000FFB5B24081451305F00241016FF01FA9AC
:10255000411193064031054685451305D00206C654
:10256000EFF0FF9981451305F002EFF03FA7814599
:102570001305D002EFF09FA61545EFF03FB2854559
:102580001305F002EFF09FA51305D0028545EFF08B
:10259000FFA4B240154541016FF05FB04111814584
:1025A0001305F00206C6EFF07FA3930640310546FF
:1025B00085451305D002EFF09F9481451305D002A5
:1025C000EFF0DFA10945EFF07FAD85451305F0027F
:1025D000EFF0DFA00945EFF07FACB2408145130575
:1025E000F00241016FF09F9F411181451305F002F8
:1025F00006C6EFF0BF9E930640310546854513059C
:10260000D002EFF0DF8F85451305D002EFF01F9D5C
:102610000945EFF0BFA885451305F002EFF01F9CB8
:102620000945EFF0BFA7B24081451305F002410113
:102630006FF0DF9A411193068034054681451305FA
:10264000D00206C622C4EFF09F8B85451305D00249
:10265000EFF0DF980545EFF07FA485451305F00204
:10266000EFF0DF970545EFF07FA31304B00F1305DC
:10267000D002EFF0FF9801E91305F0028145EFF079
:10268000FF95014501A87D141374F40F6DF0EFF070
:102690003FEC0545B240224441018280411126C2EF
:1026A0009306403105468545AA841305D00206C627
:1026B00022C4EFF0DF8481451305F002EFF01F9292
:1026C000214493978401E187854563C307008145D1
:1026D0001305D002EFF09F900945EFF03F9C854530
:1026E0001305F002EFF09F8F0945EFF03F9B814506
:1026F0001305F002EFF09F8E7D14860409451374D4
:10270000F40F93F4F40FEFF07F9945FCB2402244AC
:1027100092444101828041114AC0930680342A8943
:10272000054681451305D00222C426C206C6A1442F
:10273000EFF0EFFC014481451305F002EFF01F8A32
:102740001545EFF0BF951305F0028545EFF01F89A1
:1027500006041305D0021374F40FEFF07F8A01C54D
:1027600005041374F40FFD14054593F4F40FEFF012
:10277000FF92F1F0631B0900EFF01FE72285B240E2
:1027800022449244024941018280EFF03FE1FDB7CB
:1027900013D74501B7071000FD1713D8460113776B
:1027A000F77F9308F07F33FEB700AA8EF58FFD8187
:1027B000328F1378F87FFD82630B170105436306A0
:1027C000180163140701630DFE001A858280B36847
:1027D000AE000543E39B08FEE319E8FED18FF5F751
:1027E0000543E394EEFF0143E381D5FE054371FF0A
:1027F0003365AE003333A000C9BF13D74501B70717
:102800001000FD1713D846011377F77F9308F07F68
:1028100033FEB700AA8EF58FFD81328F1378F87FD3
:10282000FD82630E1703630D180129E3B368AE0040
:10283000631F08005D8E01EE0143638C080421A82C
:10284000B3E8C7000943639608046DD305A0638409
:1028500008046385D50205438DCD7D531DA8B3685B
:10286000AE00094363970802630AE8026314080094
:102870005D8E75D2E391D5FEE34FE8FC6349070115
:10288000E3EBC7FD630FFE0001436374FE00F1D567
:1028900005431A858280EDFE7D53E5BF5D8E79DAB2
:1028A000CDBFE36ADFFB0143E3F5EEFFF5F175B75A
:1028B00039714AD813D945014ED652D456D293997C
:1028C000C50006DE22DC26DA5AD05ECE1379F97F07
:1028D0002A8A93D9C90093DAF501630D090E93078B
:1028E000F07F6306F9181354D5018E09B3693401DA
:1028F0003704800033E4890093143500130919C0AC
:102900008149814B13D74601139AC6001377F77F8D
:10291000B285135ACA0013DBF601630B0710930745
:10292000F07F6303F7049357D6010E0A33EA470199
:10293000130717C0B7078000B367FA009315360076
:102940003A99814833C76A01BD463A851308190090
:1029500063E83617173600001306C6058A09B299D0
:1029600083A60900B2968286B367CA001309F97F6D
:102970006399071293E9290081458948E1B7014726
:102980009307F07F3704080081443204D207318076
:102990007E075D8C598CA285F2506254268542597F
:1029A000D254B259225A925A025BF24B2161828070
:1029B0005A853E84AE84C68B8947638DFB0E8D4756
:1029C000E38FFBFA85472A87639EFB3881470144E2
:1029D000814465BF33E4A90061C036C632C4638C4C
:1029E000092A4E85EF1010002246B246AA87130727
:1029F00055FF7544938487FF198CB399990033541C
:102A00008A0033643401B3149A0013D746011309C2
:102A1000D0C0139AC6001377F77F3309F940814974
:102A2000814BB285135ACA0013DBF601E31907EE96
:102A3000B367CA00B1C7630F0A22528532C4EF10D0
:102A4000607A22462A87930655FFF547930587FF4C
:102A5000958F331ABA00B357F600B3E74701B315A1
:102A6000B6003309E9401309D9C08148E1BD33E418
:102A7000A90001ECA14981441309F07F894B59B5A4
:102A800093E919008145854875BD4E84AA84B149F2
:102A90001309F07F8D4BBDB5914981440149854BA8
:102AA00095B593E93900D2878D4869BD8947568528
:102AB000E397FBF02A879307F07F01448144F1B547
:102AC000C16E1386FEFF93D6040113DE0501F18C5F
:102AD000F18D338695023383B60293580601330590
:102AE0009E021A95AA98B382C60363F36800F69211
:102AF000C16F1383FFFF33F5670093D30701B3F76B
:102B00006800C207337366003E933306950293D87C
:102B10000801B387A602135F0601B3849302BE9433
:102B2000FA94B38E760263F3F400FE9E416A930733
:102B3000FAFF935F0401B376F400B3F9F4007D8EDD
:102B4000C1803384D502C209338FD401B299CE98A3
:102B5000B307DE02935E0401B385BF02AE97BE9E4B
:102B6000330EFE0363F3BE00529EC1679385F7FFE9
:102B700033F6BE006D8C4206229693DE0E01B3053D
:102B8000D502769E3385AF0213D40501B386D302F6
:102B9000AA96A296B38FF30363F3A600BE9F416586
:102BA0007D15B3F7A600C2076D8DAA97B3855800AF
:102BB000B3B93501FA97B2953384370133B6C500FE
:102BC000B30EC4013385CE0033343401B3B7E7010B
:102BD000C18F33BECE0113D406013336C5003E94F7
:102BE0003366CE009394950032947E94B3E46400EF
:102BF000260493567501B3349000DD819317950038
:102C0000CD8C558CDD8C9317740063DB070093D754
:102C1000140085889316F401DD8CD58C05804289DB
:102C20009307F93F6359F00893F6740081CE93F649
:102C3000F40011466388C60093864400B3B496003E
:102C40002694B6849316740063D80600B70700FF75
:102C5000FD177D8C930709409306E07F63CFF60E46
:102C600093D634009314D4012604D58C318093F785
:102C7000F77F21BB328532C4EF10C0569306550151
:102C8000F147130705022246E3D1D7DC6115B317DC
:102C9000A6008145F9B3EF10E05413075501F14543
:102CA000930705022246B246E3D5E5D461153314F5
:102CB000AA00814499BB85469D8EB1E71309E9417D
:102CC000B3972401B3D4D40033192401B337F000EF
:102CD000B3649900DD8C93F77400B356D40081CFB0
:102CE00093F7F40011466388C70093874400B3B498
:102CF0009700A696BE849397860063D807048547FD
:102D00000144814459B113068003E341D6CC7D468A
:102D1000E356D6FA0556B307F6409305000233563C
:102D2000F4006387B6001309E943B3172401DD8C6F
:102D3000B3349000D18C93F67400014499CA93F790
:102D4000F40011468146E392C7FA1394960031804D
:102D5000F6068D80D58C81470DB99307F07F01442D
:102D6000814425B142896DBD370710007D170111DF
:102D70003373B70093D84601758F935ED60122CC8A
:102D800026CA0E0393D445019357D5010E0706CEEC
:102D90004AC84EC693F8F87F130EF07F33E7EE0073
:102DA00093F4F47F13D4F50133E36700131F350068
:102DB000FD82931E36006380C81993C61600B38542
:102DC00014416305D4126351B018638B081AB70716
:102DD00080005D8F6381C4599307800363C4B73457
:102DE000FD4763C5B748930700028D8FB3D9BE0076
:102DF0003318F700B39EFE00336838013357B7002D
:102E0000B339D001336838013303E340B3090F41CC
:102E1000B3373F013306F3409317860063D307248B
:102E2000370980007D1933792601630F092C4A8503
:102E3000EF10403B130785FF93070002998FB3D72C
:102E4000F9003316E900D18FB399E9006344972A5A
:102E5000058F13061700FD4663C5C63A1307000227
:102E6000118FB3D6C9003398E9003397E700558F27
:102E700033380001B369070133D6C700814493F7A3
:102E8000790081CF93F6F90091476388F600938625
:102E9000490033B836014296B6899317860063D647
:102EA000071C138714009307F07F05886306F7203B
:102EB000B70780FFFD17F18F1398D70193D9390019
:102EC000A60733683801B1831377F77F9396C7005D
:102ED0005207B1827E04D98EC18EF2406244D24440
:102EE0004249B2494285B685056182806356B00A7F
:102EF000638A0812B70780005D8F6387C42D93072C
:102F0000800363C7B718FD4763D2B73C138805FE3B
:102F100093070002B3590701638AF5009307000481
:102F2000B385B7403317B700B3EEEE003338D001A6
:102F30003368380195A2B367D7019385148099E36C
:102F400093C61600630AD404D1E19387140093F763
:102F5000E77F6399071EB367E3013368D701639284
:102F600004166382073C6316084213183500931653
:102F7000D3011358380033E806019357330019A2E0
:102F8000B367D7016385071A9387F5FF638B073A09
:102F9000638CC523BE8589B56399051C938614008F
:102FA00093F7E67FC1EFB367E30163900436638D67
:102FB0000744B367D701639407460E051318D3017E
:102FC0000D813368A800935733006DA8B3859840EE
:102FD00063970420B367E301638D07309387F5FFA0
:102FE000638907401305F07F6383A520BE8593079F
:102FF000800363C2B72AFD4763C8B73C930700024A
:103000008D8F3318F3003356BF00B317FF003368BA
:10301000C800B339F0003353B300336838013307C5
:103020006740B5ACB367D701638307109387F5FF9B
:10303000638F071E6380C52FBE85D1B59307F07FD0
:10304000638BF606FA9E33B6EE01B307E300B29740
:103050001398F70193DE1E00B369D80113D6170049
:10306000B68493F77900E39F07E09317D60113D84E
:1030700039003368F800A685935736001307F07FB0
:103080006380E506B207B18313F7F57F05883DBD80
:103090003367D7013338E000B309E801B3B7E9017A
:1030A0003386670093178600E3DD07FA85049307EC
:1030B000F07F639CF41805881307F07F814701486F
:1030C00031B5639107106301083C1318360093175C
:1030D000D701135838003368F80036849357370007
:1030E000B367F800E9DB01441307F07FB707080076
:1030F0000148E9BB370680FF7D167D8E93F7790086
:10310000998CE39107D895B74E85EF10A00D130762
:103110008501FD47E3D2E7D2130685FFB397C900C7
:1031200081492DB33368D70133380001C5B1131875
:1031300035009317D301135838003368F8009357BC
:1031400033002DBFB309DF413309E34033363F017C
:103150003309C9409317890063CA072033E829015E
:10316000E31508CC8147014431BFB38598406381A2
:103170000414B70680009307F07F3363D3006381A4
:10318000F8209307800363CCB722FD4763C9B72CAF
:10319000930700028D8F3318F300B356BF00B317A7
:1031A000FF003368D800B339F0003353B3003368FD
:1031B00038011A97B309D801B3B7D9013386E700AC
:1031C000C684CDB5E31108F2131835009317D30167
:1031D000135838003368F8009357330011B7370598
:1031E00080009307F07F3363A300E392F8E00E06BC
:1031F0001318D7010D823368C800935737003684FF
:10320000C5B505179306000233D7E700630AD60059
:10321000930600043386C6403396C700B3E9C9005D
:1032200033383001B369E800014681441DBDB3095C
:10323000DF01B307E30033BFE9013386E7019317EA
:1032400086008544E3DF07E08944B70780FFFD1768
:10325000F18F13D7190013F81900336807019399F8
:10326000F701B3E9090113D6170011B9138805FE58
:1032700093070002B3590701638AF500930700041E
:10328000B385B7403317B700B3EEEE003338D00143
:1032900033683801A5BE3363E30133386000B38976
:1032A0000E41B3B73E013306F740C6843684ADB64F
:1032B000B367E301638707189387F5FF638C071CE7
:1032C0009306F07F638ED50ABE8565BD9307000225
:1032D0008D8FB3D9BE003318F700B39EFE0033685C
:1032E00038013357B700B339D001336838013A9306
:1032F00065B3131836009317D7011358380033E815
:10330000070136849357370095BBBDCB3367D70190
:10331000E31B07DC0E051318D3010D813368A800E9
:103320009357330075BBE30F08E213183600931769
:10333000D701135838003368F800368493573700A4
:1033400091B3B309DF41B307E340333F3F01338615
:10335000E7418544D1B4131835009316D3011358AF
:10336000380033E80601935733009DBBB389EE4123
:103370003306674033B93E0133092641368475B4BC
:103380000E061318D7010D823368C8009357370013
:1033900081BBB309DF41B307E34033363F013386D6
:1033A000C7409317860063D7070AB389EE41B30776
:1033B0006740B3BE3E013386D7413684C9B4336318
:1033C000E30133386000FDB3138805FE9307000264
:1033D000B3590301638AF50093070004B385B7402E
:1033E0003313B300336F6F003338E00133683801B3
:1033F0007DB5B389EE41B3076740B3BE3E01338666
:10340000D7413684854409BC131836009317D70179
:10341000135838003368F80093573700A5B1B30943
:10342000DF01B307E30033BFE9013386E7019317F8
:103430008600E3D807C2B70780FFFD177D8E85445D
:103440000DB10E061318D7010D823368C8009357CB
:1034500037002DB133E8C900E30608D019B113884D
:1034600005FE93070002B3590301638AF500930731
:103470000004B385B7403313B300336F6F003338A4
:10348000E001336838013DB301441307F07FB7070B
:1034900008002DBCB309DF01B307E300B3BED901B7
:1034A0003386D70169BB93D74501B7061000138750
:1034B000F6FF93F7F77F1306E03F6D8FFD81635CA6
:1034C000F6001306D041635AF60037050080134515
:1034D000F5FF2E95828001458280130630431D8EB4
:1034E0007D48558F635DC80093063041B387F64031
:1034F000B357F7003305F040E5F13E8582809387AE
:10350000D7BEB317F7003355C500C98FE5B793D7BA
:103510004501B70610001387F6FF93F7F77F1306F0
:10352000E03F2A886D8F0145FD816354F60099C103
:10353000828082801306E0417D55E34BF6FE130541
:1035400030431D8D7D46558F634AA6009387D7BEB5
:103550003317F7003355A800598D82801305304189
:10356000B307F5403355F7008280411106C622C4E7
:1035700026C20DCD9357F541B3C4A7009D8C2A8474
:103580002685EF0030469306E041898EA9477D806D
:1035900093F6F67F63CDA7022D47098FB3D7E400DA
:1035A0005505B207B394A400B18329A00144814614
:1035B00081478144B207D206B1837E04D58FC18F83
:1035C000B24022442685BE85924441018280551531
:1035D000B397A400B207B1838144E9BF397193570F
:1035E00075014AD856D25ECE931A95001359F5014B
:1035F00006DE22DC26DA4ED652D45AD093F7F70FE5
:1036000093DA9A00CA8B638207121307F00F638460
:10361000E7128E0A37070004B3EAEA00138A17F8A4
:103620000144014B93D775019394950093F7F70FDD
:10363000A58093D9F501FDC71307F00F6387E70253
:103640008E04938717F837070004D98C330AFA40A1
:103650008146558C172700001307C7390A043A948E
:103660001C4033493901BA978287130A1AF0F9E8E6
:103670008946558C172700001307C73B0A043A9464
:103680001C4033493901BA97828701491307F00F6B
:10369000B707400013959700F250625493177701D3
:1036A00025817E095D8D33652501D2544259B25979
:1036B000225A925A025BF24B216182801307F00F6B
:1036C0008147C9BFA68ACE8B368B8947630BFB1A0D
:1036D0008D47E30CFBFA8547630AFB0A1307FA07D9
:1036E00013F91B006357E01293F77A0099C793F719
:1036F000FA0091466383D700910A93974A0063D9F1
:103700000700B70700F8FD17B3FAFA0013070A0815
:103710009307E00FE3C4E7FA93976A00A583137752
:10372000F70F8DBFB9E48546A9B763940A02114427
:10373000014A054BC5BD63990A002144130AF00FE5
:10374000094BCDB58D4631B73144130AF00F0D4BFF
:10375000D1BD56852EC6EF00F0289307B5FFB39A6A
:10376000FA009307A0F8338AA7400144014BB24501
:1037700055BD2685EF0010271307B5FFB307AA0034
:10378000B394E400138A67078146E1B513F91B007F
:103790000147814701B74166139554007D16935741
:1037A0000501698E63FA9A0AB3D5FA027D1AD686A4
:1037B00001473388C502B3F6F602C206558F637B14
:1037C00007012A979386F5FF6368A70A6376070BBC
:1037D000F9152A9733070741B356F7023377F702F3
:1037E000B38AC6029317070163FB5701AA97138791
:1037F000F6FF63E1A70863FF5707F916AA97C2050A
:10380000B38A5741D58DB33A5001B3EA5501CA8BFB
:10381000F1B58546998E11C76D4601478147E34B47
:10382000D6E6130AEA09339A4A01B3D7DA00B33A63
:103830004001B3E7570113F7770019C713F7F700F3
:1038400091466303D7009107139757006348070217
:103850009A07A58301473DBD93D61A00B3D5F6025A
:103860001397FA0141833388C502B1B7CE8B368BEB
:10387000814AA1BDBA8661B7B685A9BF0547814710
:1038800011BD13F91B001307F00F814721B57971A2
:1038900022D4135475014ECE52CC9319950006D6FE
:1038A00026D24AD056CA5AC81374F40F93D9990035
:1038B000135AF50169C49307F00F6308F40E939748
:1038C000390037070004B3E9E700130414F8814412
:1038D000014B13D77501939A95001377F70F93DA7D
:1038E0009A0013D9F50145CF9307F00F630CF70247
:1038F0008E0A130717F8B7070004B3EAFA003A94E0
:10390000014633452A01BD47AA869305140063E2A8
:103910009710172700001307E7158A04BA949C40F4
:10392000BA9782871304F40F63980A0C93E4240077
:103930000946C1BF01451307F00FB7074000B25059
:103940002254A6075E07A5837E05D98F925402599B
:10395000F249624AD24A424B5D8D45618280CA86F5
:10396000D689328B89476301FB0A8D47E304FBFC50
:10397000854736856312FB1A01478147C9B7639EA5
:10398000090413D77501939A95001377F70F9144A3
:103990000144054B93DA9A0013D9F50131F7639D81
:1039A0000A0093E414000546A9BF63930902A144E9
:1039B0001304F00F094B31BF5685EF00B002930797
:1039C000B5FF098CB39AFA001304A4F8014615BF99
:1039D000B1441304F00F0D4BEDBD4E852EC6EF0024
:1039E00070009307B5FF1304A0F8B399F900098C90
:1039F0008144014BB245F1BD93E434000D4611B74B
:103A00008947D286E313FBF636851307F00F81470B
:103A10003DB741639306F3FF13D6090193D80A011A
:103A2000B3F7D900B3FADA0033885703B389F80241
:103A300013570801B30A5603D6994E973306160357
:103A4000637357011A96C167FD17B376F700337891
:103A5000F800C206C2969399660093570701B339DE
:103A60003001E982B2979A07B3E6D900B3E9D700EB
:103A70009397490063D9070013D7190093F71900EA
:103A8000B369F7002E841307F4076350E00493F73B
:103A9000790099C793F7F90091466383D70091099C
:103AA0009397490063D90700B70700F8FD17B3F9EA
:103AB000F900130704089307E00F63CBE70493971B
:103AC0006900A5831377F70F9DBD8547B386E7404F
:103AD00011C76D4601478147E343D6E61307E40962
:103AE0003397E9003337E000B3D7D900D98F13F704
:103AF000770019C713F7F70091466303D7009107C2
:103B000013975700634C07009A07A583014705BD2B
:103B10001307F00F814725B52E84B5B705478147B8
:103B200039BD3707800041117D179356750113D8B1
:103B30007501B377A70093F6F60F935EF501337620
:103B4000B70026C24AC01378F80F06C622C4130372
:103B5000F00F3E8E3689F684139F3700FD811315D2
:103B60003600B38806416302681093C51500638C64
:103B7000BE106354100D631008106304051EFD1879
:103B8000B307AF40638608029307F00F6388F61609
:103B9000ED4763C71729130700023307174133178F
:103BA000E500B35715013337E000D98FB307FF4065
:103BB000139757006351071A370400047D147D8C56
:103BC00022850D256D15B317A400634E251B330503
:103BD00025411304150013070002018F3397E700F6
:103BE0003337E000B3D78700D98F014913F7770047
:103BF00019C713F7F70091466303D700910713978E
:103C00005700635E0714930619001307F00F93FE25
:103C100014006386E6169A07A58393F6F60FA607A7
:103C2000B240224413D59700DE069397FE01558DCE
:103C3000924402495D8D410182806392080A138794
:103C400016001377E70F631B0714639406226302C1
:103C50000F2071D5B307AF40139757006355072264
:103C6000B307E5410149AE8451B7E30005F0638A2B
:103C7000BE0AE35410FD9307F00F6381F608B707FF
:103C800000045D8D31B7635E100963010808930776
:103C9000F00F6385F606B70700045D8DED4763C03E
:103CA000171F13070002330717413317E500B357F7
:103CB00015013337E000D98FFA9713975700635CEB
:103CC000070805091307F00F630BE90AB706007E22
:103CD00013D71700FD16858B758FD98F01BF33075A
:103CE000D84063950610630D0F147D176303071A00
:103CF0009307F00F6314F810AE84328E630F0E0634
:103D0000814E9306F00FB707400011BF39C9FD1867
:103D1000B307AF00E38308FA9307F00FE390F6F8D8
:103D2000F1BF63990808138916001377E90F63162A
:103D30000712639B061063030F16E30205EEB30739
:103D4000AF0013975700014963570700370700FC7E
:103D50007D17F98F054913F77700E31C07E813DE99
:103D600037009307F00FE30BF9F893179E00A58334
:103D70009376F90F93FE14005DB593FE140093063D
:103D8000F00F814769BD370700FC7D17F98F13F7E6
:103D900077003309A940E31E07E4D1B73304AF40ED
:103DA0009317540063C3070CE31C04E0814E814663
:103DB0008147B5B53307D840B5C69307F00FE30E7A
:103DC000F8F2B7070004336FFF00ED4763CDE70C4F
:103DD00093070002998FB317FF003357EF00B337F3
:103DE000F0005D8FB307A7004289C1BD9307F00FB4
:103DF000E304F8F0B7070004336FFF00ED4763C238
:103E0000E70893070002998FB317FF003357EF00BD
:103E1000B337F000D98FB307F5404289AE8449BB70
:103E2000854769B3630E0F067D17B307AF0042895C
:103E3000E30507E89307F00FE319F8F8328E7DBD2C
:103E4000328E4289AE8431BFE3090FEAE30805EA06
:103E500045BD0DCDAE8EB287D9B39307F00FE30009
:103E6000F9F2B307AF008583FDB53304E541AE84B5
:103E700081BBE31D0FFCE30505E8AE84BDBD8547AE
:103E800025BD854749BF0149E39707EC814E81472E
:103E900079B3B307E5414289AE8419BBB28741B318
:103EA000328E42897DBD054735BF135775013706F0
:103EB00080009307F6FF1377F70F9305E007B3F63B
:103EC000A7009357F501014563F4E50099C382808B
:103ED00082809307E0097D55E3EBE7FE93055009E7
:103EE000B3E7C60063D7E5001307A7F63395E700ED
:103EF0008280130560093307E54033D5E7008280EF
:103F0000411106C622C415CD2A84E92C9307E00985
:103F10003387A7409307600963C0E704A1469377FE
:103F2000F70F63D5A60061153314A400260425807D
:103F3000260413559400B2402244DE075D8D4101F2
:103F400082800144260413559400B24022448147E4
:103F5000DE075D8D410182809307900963DDE700F4
:103F60009307B5019546B317F400898EB337F00077
:103F70003354D4005D8C954763D6A7009307B5FFF3
:103F80003314F400B70600FCFD1693777400337603
:103F9000D40085C39377F4009145638CB700110674
:103FA0009317560063D707009307F009758E338780
:103FB000A740131466002580260413559400B240D0
:103FC00022449377F70FDE075D8D410182801357FE
:103FD00075011377F70F41119307170022C426C20A
:103FE0001314950006C693F7E70F25809354F50147
:103FF00085C793573400130707387604B207520772
:10400000B1831395F401D98FC98FB2402285224420
:104010009244BE854101828005EB39C42285D922B4
:10402000A94763C6A7042D47098F93075501335746
:10403000E4003314F4009317C70013079038098F76
:10404000B1831377F77F5DBF01CC13573400B707F7
:104050000800D98FB2077604B1831307F07F79BFC8
:104060001307F07F814759BF0147814741BF1307BD
:1040700055FF3317E40001447DBF93D64501939764
:10408000C50093F6F67FB183138616008E0713578B
:10409000D5011376E67FFD815D8F9318350035CE0F
:1040A000138806C89307E00F63DD07018147139566
:1040B00097009306F00FDE062581FE05558D4D8D88
:1040C00082806355000B931765000E07B337F0002D
:1040D000D98F93D8D801B3E7170113F7770063019D
:1040E000071013F7F70091466303D70091073707CE
:1040F00000047D8F75C7130718001306F00F937621
:10410000F70FE305C7FA9A07A58313959700DE0614
:104110002581FE05558D4D8D8280B367170199EE7F
:1041200085CF95479A07A5831395970093F6F60FC9
:10413000DE062581FE05558D4D8D8280A5DBB707F6
:104140004000139597009306F00FDE068145258108
:10415000FE05558D4D8D82808147139597008146D0
:10416000DE062581FE05558D4D8D8280A55763485D
:10417000F804F94737068000B38707417D45598E1B
:104180006351F5047957330707411305000233578C
:10419000E6006388A700938626CAB316D600B3E864
:1041A000D800B3371001D98F13F77700014815FBFA
:1041B000139757008546E34807F48146A5B7814623
:1041C0008DB7938626C83397D8003337E000B316EF
:1041D000D600B3D8F800B367D700B3E7F800E9B763
:1041E000C28689B7C167637EF5029307F00F130794
:1041F000000263ECA700972700009387A78BAA977C
:1042000003C507003305A74082802181972700005E
:104210009387478AAA9703C5070061473305A740DC
:104220008280B7070001636EF50061819727000067
:1042300093874788AA9703C5070021473305A740FE
:1042400082804181972700009387C786AA9703C57C
:10425000070041473305A740828097C7FF1F938718
:10426000A7E19C434111328806C6AA882E87C84719
:104270003686972700009387E793631708009727F0
:1042800000009387E7933E88C686972500009385B4
:1042900065931920EF001017397132D436D63EDA03
:1042A0003AD842DC46DE97C7FF1F9387E7DC2E86AD
:1042B000AA858843341006CE36C62D22F2402161ED
:1042C0008280B3C7A5008D8B3307C50081E78D477A
:1042D00063EEC700AA876370E50A83C605008507F9
:1042E0008505A38FD7FEE3EAE7FE8280937635004B
:1042F000AA8791CA83C6050085078505A38FD7FEC7
:1043000093F63700FDB79376C7FF138606FE63F07A
:10431000C70683A3050083A2450083AF850003AFD2
:10432000C50083AE050103AE450103A3850183A843
:10433000C5019385450223A0770003A8C5FF23A2EA
:10434000570023A4F70123A6E70123A8D70123AA36
:10435000C70123AC670023AE17019387470223AE42
:1043600007FF75B790419107910523AEC7FEE3EBB8
:10437000D7FEE3E4E7F682801C46FD171CC663D92E
:104380000700184E63C5E700A9476393F5005DA5D4
:104390001C422E851387170018C22380B700828025
:1043A000011122CC26CA4AC84EC652C406CE2A895A
:1043B000AE893284B304D6007D5A6314940001455B
:1043C00011A8834504004E864A85EFF0FFFA0504E4
:1043D000E31545FFF2406244D2444249B249224AC1
:1043E00005618280357122CD26CB4AC94EC706CFE2
:1043F00052C556C35AC1DEDEE2DCE6DAAA89AE84D3
:104400003289368409C51C4D99E3EF005026972761
:1044100000009387E783639DF40C83A4490083D74E
:10442000C400A18BE5CB9C48F5C793070002A30409
:10443000F1029307000302D22305F10222C6930B77
:104440005002971A0000938AEA7A054C294B4A8455
:104450008347040099C36391770FB30C2441638EA3
:104460000C00E6864A86A6854E85EFF07FF3FD5761
:104470006308F51E9256E69636D2834704006381A0
:10448000071EFD571309140002C802CE3ECA02CC13
:10449000A309010482D48345090015465685EF001F
:1044A000F04313041900C24751E913F7070109C784
:1044B00013070002A309E10413F7870009C71307D4
:1044C000B002A309E104834609001307A002638F29
:1044D000E606F2474A8481462546034704009305D1
:1044E0001400130707FD6378E60AADCA3ECEBDA0EF
:1044F000971700009387C7776395F40083A489001A
:1045000039BF971700009387A772E39AF4F083A44A
:10451000C90031B7A6854E85F12B01D97D55FA40EA
:104520006A44DA444A49BA492A4A9A4A0A4BF65B2B
:10453000665CD65C0D618280050419BF3305554168
:104540003315AC00C98F3EC82289B1B732479306F4
:104550004700184336C6634907023ACE03470400B2
:104560009307E002631FF704034714009307A002B8
:10457000631BF702B2470904138747009C433AC6FE
:1045800063C107023ECA35A83307E04093E727001E
:104590003ACE3EC8E1B7B387670385462E84BA9703
:1045A0002DBFFD57C5B7050402CA81468147254680
:1045B0000347040093051400130707FD6378E6061C
:1045C000F1F2834504000D4617150000130505633D
:1045D000EF00D03011CD97170000938727621D8D13
:1045E00093070004B397A700424505045D8D2AC8D0
:1045F000834504001946171500001305656013096B
:1046000014002304B102EF00702D3DC197C7FFFFD6
:104610009387479F95E74247B2471377071009CF23
:1046200091073EC69257D2973ED215B5B38767031E
:1046300085462E84BA97ADBF9D07E19BA107D5B7EC
:104640007800970600009386E6D526860C084E85EE
:1046500097000000E7000000FD572A8AE314F5FCEC
:1046600083D7C40093F70704E39A07EA125545BDC0
:104670007800970600009386E6D226860C084E85C1
:10468000012AD9BF797156CA9C49BA8A984522D461
:1046900026D24ECE52CC06D64AD05AC85EC6AA8979
:1046A0002E84B284368A63D3E700BA879CC003475E
:1046B000340419C385079CC01C4093F7070281C7C7
:1046C0009C4089079CC00329040013796900631A80
:1046D0000900130B9401FD5B5C449840998F634C77
:1046E000F9041C408346340493F70702B336D00024
:1046F000A5EB13063404D2854E85829AFD576303D9
:10470000F5041C4011469840998B544481446397AA
:10471000C700B384E64063D3040081441C441848B6
:104720006354F700998FBE94014969047D5B6398D7
:104730002405014509A885465A86D2854E85829A68
:10474000631E75017D55B250225492540259F249AC
:10475000624AD24A424BB24B456182800509ADBFE5
:104760003307D40013060003A301C704034754040E
:1047700093871600A2978906A381E7049DBF85460B
:104780002286D2854E85829AE30E65FB050945B7E0
:10479000797122D426D24AD04ECE06D652CC56CAF1
:1047A0005AC8B68983C685019307E0063289AA8470
:1047B0002E84138635046381F61E63E2D7069307C1
:1047C00030066382F60A63EDD700638B061E9307FB
:1047D00080056387F616930A24042301D40469A88C
:1047E000930740066386F60093079006E395F6FE6E
:1047F0001C40084393F6070893054500C1C21C41BD
:104800000CC363D807001307D002B307F040A3011D
:10481000E404971600009386263F294765A0930776
:1048200030076383F61A63EFD7009307F006638FB0
:10483000F60493070007E390F6FA9C4193E707021A
:104840009CC109A8930750076382F6049307800769
:10485000E393F6F893078007A302F4049716000089
:104860009386C63BE5A01C43938A250493864700A4
:104870009C4314C32381F5048547B5A293F607042E
:104880001C410CC3BDDEC207C187A5BF0C401C4341
:1048900013F80508138547006305080008C39C4307
:1048A00039A093F5050408C3FDD983D70700130782
:1048B000F006638BE60C971600009386E6342947D2
:1048C000A30104044C400CC463C5050008406D9965
:1048D00008C099E3B28A91CDB28AB3F5E702FD1A16
:1048E000B69583C505002380BA00B3D5E70263F30C
:1048F000E70AA147631EF7001C40858B91CB584007
:104900001C4863C7E70093070003A38FFAFEFD1A54
:104910003306564110C84E87CA867000A285268588
:10492000EFF05FD67D5A6314450D7D55B250225489
:1049300092540259F249624AD24A424B45618280FE
:10494000A382D504971600009386062C0C400843DA
:1049500013F805081C4111056300080208C313F78A
:10496000150001C793E505020CC04147B1FB0C409F
:1049700093F5F5FD0CC0A9B713F8050408C3E300CF
:1049800008FEC207C183E1BF971600009386C627C1
:1049900021473DB7AE8791B794411C43CC4913F8EA
:1049A0000608138547006306080008C39C438CC3B0
:1049B00001A808C393F606049C43F5DA2390B700D8
:1049C00023280400B28A81BF1C43D04181459386CD
:1049D000470014C383AA07005685092701C533057C
:1049E000554148C05C401CC8A30104042DB71448BD
:1049F0005686CA8526858299E30945F31C40898B32
:104A00008DE7B2474844E353F5F23E8505B7854646
:104A10005686CA8526858299E30965F1050A5C44B4
:104A20003247998FE345FAFEE9BF014A930A9401A0
:104A30007D5BF5B7011122CC26CA4AC806CE4EC608
:104A4000AA842E89328401C51C4D91E30D2197174C
:104A500000009387E71F6319F406C0401C4C1CC478
:104A60008357C400A18BC9C31C48BDCF1C48084054
:104A70009379F90F1379F90F1D8D5C486346F500A2
:104A8000A2852685E9242DE51C440505FD171CC4D7
:104A90001C401387170018C0238037015C486389C6
:104AA000A7008357C400858B81CBA9476316F90003
:104AB000A2852685692C0DEDF24062444A85D244D8
:104AC0004249B24905618280971700009387471ACF
:104AD0006314F400804459B7971700009387471573
:104AE000E31EF4F6C0449DBFA285268521203DDD4E
:104AF0007D59D9B7411197B7FF1F9387E75726C252
:104B0000844322C44AC006C62A892E8489C49C4C88
:104B100099E32685A92E9717000093876713631CD6
:104B2000F402C0400317C40093170701C18393F632
:104B30008700B5EE93F607019DEEA5472320F90007
:104B4000136707042316E4007D55B24022449244C3
:104B5000024941018280971700009387671163140F
:104B6000F4008044C1B7971700009387670CE31BDC
:104B7000F4FAC04445BF918B8DC74C5889C993073F
:104B800044046384F5004A85BD23232A0402835725
:104B9000C4002322040093F7B7FD2316F4001C4839
:104BA0001CC08357C40093E787002316F4001C48F9
:104BB00081EF8357C4001307002093F7072863850C
:104BC000E700A2854A85A5298357C40013F717007B
:104BD00005C75C4823240400B307F0401CCC1C48E4
:104BE0000145A5F78317C40013F7070839DF93E7DA
:104BF00007042316F40089BF898B014791E35848C5
:104C000018C4F1BF4111194506C6C52D0545EF0071
:104C1000301B83D7C500011122CC26CA06CE4AC854
:104C20004EC613F78700AA842E8471EFD841634DD6
:104C3000E000B841634AE0000145F2406244D244DA
:104C40004249B2490561828058547DD703A90400C6
:104C50009396370123A0040063DD0606704883574E
:104C6000C400918B99C75C401D8E5C5899C33C4031
:104C70001D8E5C540C50814626858297FD57035744
:104C8000C400631DF5009440F54763E8D706B707F5
:104C900040208507B3D7D700858BA5C31C482322A6
:104CA00004001CC09317370163D80700FD57631435
:104CB000F5009C4091E368C84C5823A02401ADDD69
:104CC000930744046384F50026853521232A0402D2
:104CD000A5B70C500146854626850297FD572A86C2
:104CE000E31FF5F69C40A5DF75476385E70059474C
:104CF0006394E70423A0240181B7136707042316F4
:104D0000E4007D551DBF83A90501E38709F203A9CE
:104D100005008D8B23A0350133093941014791E30B
:104D2000D84918C4E35A20F11C540C50CA864E8648
:104D3000268582976349A0008357C40093E7070440
:104D40002316F4007DBFAA993309A940E1BF9C490D
:104D5000A5C3011122CC06CE2A8411C51C4D81E7C2
:104D60002EC63122B24597170000938767EE639CE9
:104D7000F5004C408397C5009DC722856244F240F0
:104D800005616FF01FE997170000938767EE639442
:104D9000F5000C44C5B797170000938767E9E39BBC
:104DA000F5FC4C44C1BFF24062440145056182807C
:104DB00001458280411122C406C62A842316B5000B
:104DC0002317C50023200500232205002324050006
:104DD0002322050623280500232A0500232C05008D
:104DE000214681451305C505EFB08FB59707000033
:104DF000938727555CD097070000938787571CD46B
:104E0000970700009387C75B5CD4970700009387E0
:104E1000875E00D01CD8B2402244410182809705B1
:104E20000000938505F391AA411126C2130680065E
:104E30009384F5FFB384C4024AC02E8922C406C6F7
:104E400093854407992E2A8401CD2320050023222F
:104E50002501310508C4138684068145EFB04FAEA5
:104E60002285B240224492440249410182801C4D75
:104E7000A5E7411106C622C497070000938767FA89
:104E80001CD5938781809C43232405042326050495
:104E9000232805046314F50085471CCD2A84352892
:104EA00048C022851D2808C42285052848C44840DA
:104EB00001469145EFF01FF008440546A545EFF087
:104EC0007FEF48440946C945EFF0DFEE85471CCC2B
:104ED000B2402244410182808280411193878180C7
:104EE00026C284434AC006C69C4C22C42A8981E754
:104EF0002685EFF0DFF7938484048044DC40FD17BF
:104F000063D607009C40B9CF8440C5BF0317C400D7
:104F100039E7C177850723220406232004002322D2
:104F20000400232404005CC423280400232A040072
:104F3000232C0400214681451305C405EFB04FA082
:104F4000232A0402232C0402232404042326040419
:104F50002285B240224492440249410182801304D6
:104F6000840671BF91454A85EFF01FEC88C049FD6A
:104F7000B1472320F9000144E1BF797122D44AD01E
:104F800052CC56CA5AC85EC606D626D24ECE2A8AF9
:104F9000AE8A130485040149054BFD5B09ECB25050
:104FA00022544A8592540259F249624AD24A424BEB
:104FB000B24B45618280044483294400FD1963D4C7
:104FC00009000040E1BF83D7C400637BFB008397E7
:104FD000E40063877701A6855285829A3369A90028
:104FE00093848406E1BF1971A6DAAE848395E50047
:104FF000A2DC86DE328463DC050083D7C40023A0F4
:10500000060093F707089DE39307004015A03008BA
:1050100036C6B121B246E34205FE7247BD67F98F3D
:105020007977BA9793B717009CC2F9BF930700042A
:105030001CC0F6506654D65401450961828083D75E
:10504000C500011122CC06CE26CA4AC8898B2E84FF
:1050500089CF930774041CC01CC885475CC8F24004
:105060006244D24442490561828074003000AA84BF
:10507000EFF07FF7A2452A892685052201ED8317E7
:10508000C40013F7072061FFF19B93E72700231665
:10509000F400C1B7970700009387A7D89CD4835723
:1050A000C40008C008C893E707082316F400A24705
:1050B0005CC8B24789CF8315E4002685D12E01C98B
:1050C0008357C400F19B93E717002316F40083571E
:1050D000C4003369F9002316240151B793F5F50F85
:1050E0002A966314C5000145828083470500E38D3D
:1050F000B7FE0505FDB7CDC183A7C5FF411122C489
:1051000006C626C21384C5FF63D307003E94AA8453
:10511000D5269387C1829C4399EB2322040023A6C2
:1051200081822244B240268592444101E9A6637EF1
:10513000F40014403307D4006396E7009843DC433F
:10514000369718C05CC0E1BFBA87D84319C3E37D66
:10515000E4FE94433386D700631F86001040B29666
:1051600094C33386D700E31EC7FA10435843B29660
:1051700094C3D8C37DB76375C400B1479CC055B70D
:105180001040B306C4006316D70014435843B296C8
:1051900014C058C0C0C371B78280011126CA93845D
:1051A0003500F19806CE22CC4AC84EC6A104B147BC
:1051B00063F1F404B14463E0B4042A89252E938793
:1051C000C18298433A8431E0938701839C4391E7FD
:1051D00081454A85512823A8A182A6854A85692050
:1051E000FD5963173507B1472320F9004A85212669
:1051F00029A0E3D204FCB1471CC10145F24062443E
:10520000D2444249B249056182801C40858F63CEF9
:105210000702AD4663F6F6001CC03E9404C031A000
:105220005C406312870223A6F1824A85E9241305B4
:10523000B4009307440061993307F54061D33A9471
:10524000898F1CC065BF5CC3CDB722874040A5BF16
:10525000130435007198E30385FCB305A4404A8527
:105260002120E31D35FB41B7411122C42A842E853C
:1052700097E7FF1F23A207E006C60D26FD57631917
:10528000F50097E7FF1F938727DF9C4391C31CC05E
:10529000B240224441018280FD4763F6B700D947FE
:1052A0001CC17D5582807C41011122CC06CE2E8608
:1052B0002A8491C713972500BA97984319EB228542
:1052C00032C6AD28AA85228562443246F240056185
:1052D0002DA8854601456308D700FD566319D70000
:1052E000D9471CC00545F2406244056182802E8585
:1052F00023A0070002970145FDB797B7FF1F9387CB
:10530000A7D7AA8588436FF03FF9411122C42A84A8
:105310002E85B28597E7FF1F23A007D606C6B924BE
:10532000FD576319F50097E7FF1F9387E7D49C4368
:1053300091C31CC0B24022444101828001AC4111A2
:1053400022C42E848395E50006C67D2263490500AC
:105350007C48AA977CC8B24022444101828083578E
:10536000C4007D777D17F98F2316F400EDB783D73E
:10537000C500011122CC26CA4AC84EC606CE93F7F4
:105380000710AA842E843289B68991C78395E500D7
:105390008946014635228357C4007D777D17F98FF2
:1053A0002316F4008315E4006244F240CE864A8658
:1053B000B24942492685D24405613DA8411122C423
:1053C0002E848395E50006C6E528FD570357C400E3
:1053D000631BF500FD77FD17F98F2316F400B2402B
:1053E0002244410182808567D98F2316F40068C862
:1053F000FDB78395E50025A8411122C42A842E8596
:10540000B285368697E7FF1F23A807C606C6EFC0FA
:10541000DFE7FD576319F50097E7FF1F9387C7C5BF
:105420009C4391C31CC0B24022444101828041117F
:1054300022C42A842E8597E7FF1F23AF07C206C622
:10544000F520FD576319F50097E7FF1F9387C7C243
:105450009C4391C31CC0B24022444101828041114F
:1054600022C42A842E85B28597E7FF1F23A607C092
:1054700006C6E920FD576319F50097E7FF1F9387DC
:10548000A7BF9C4391C31CC0B2402244410182800B
:10549000411122C42A842E8597E7FF1F23AE07BC43
:1054A00006C66D28FD576319F50097E7FF1F938720
:1054B000A7BC9C4391C31CC0B240224441018280DE
:1054C000411122C42A842E85B285368697E7FF1FB4
:1054D00023A407BA06C65D20FD576319F50097E7B8
:1054E000FF1F938767B99C4391C31CC0B2402244FD
:1054F0004101828082808280411122C42A842E85CB
:10550000B285368697E7FF1F23A807B606C6BD28D3
:10551000FD576319F50097E7FF1F9387E7B59C4395
:1055200091C31CC0B2402244410182809307800590
:1055300017E7FF1F2322F7B47D558280930780056C
:1055400017E7FF1F232AF7B27D5582809307800556
:1055500017E7FF1F2322F7B27D558280930780054E
:1055600017E7FF1F232AF7B00145828093078005C4
:1055700017E7FF1F2322F7B07D5582809307800530
:1055800017E7FF1F232AF7AE7D558280930780051A
:1055900017E7FF1F2322F7AE7D5582809387418353
:1055A0009C4391C73E9523AAA1823E85828097E7BE
:1055B000FF1F9387A7AC3E9523AAA1823E858280D8
:1055C00001A00000000020416666666666660A402B
:1055D000000000000000703F0000000000002440B8
:1055E000000000000000344054656D703D00000074
:1055F00068756D693D0000006C75783D0000000025
:10560000900900009A090000100A0000A209000099
:10561000B6090000BE090000C6090000CE0900005E
:10562000100A0000100A0000D6090000DE09000080
:10563000E6090000EE090000F6090000FE0900007E
:10564000080A000001020202030404020501060226
:105650000702080109040A020B020C020D020E04E3
:105660000F04100211021202130214021501160295
:10567000440B0000880B0000640C00006C0C000060
:10568000860C0000AA0C0000B20C00008C0C00007C
:105690005A0D00008C0C00008C0C00008C0C0000DB
:1056A0008C0C00008C0C0000780D00007B22702216
:1056B0003A220000666975366A35663276646B6E2A
:1056C0007971757800000000222C2276223A22009F
:1056D000312E302E30000000222C226D223A0000A4
:1056E000320000007D00000000000000000000000B
:1056F000002F000000000700070000147F147F1433
:1057000000242A7F2A1200626408132300364955B8
:10571000225000000503000000001C224100000090
:1057200041221C000014083E08140008083E080826
:10573000000000A060000008080808080000606081
:105740000000002010080402003E5149453E0000C0
:10575000427F4000004261514946002141454B31A2
:10576000001814127F10002745454539003C4A496E
:1057700049300001710905030036494949360006E0
:105780004949291E00003636000000005636000048
:1057900000081422410000141414141400004122C3
:1057A000140800020151090600324959513E007C9B
:1057B0001211127C007F49494936003E4141412285
:1057C000007F4141221C007F49494941007F09096E
:1057D0000901003E4149497A007F0808087F00001E
:1057E000417F4100002040413F01007F08142241D9
:1057F000007F40404040007F020C027F007F040891
:10580000107F003E4141413E007F09090906003EEC
:105810004151215E007F0919294600464949493115
:105820000001017F0101003F4040403F001F204038
:10583000201F003F4038403F0063140814630007F6
:105840000870080700615149454300007F4141004D
:1058500000552A552A55000041417F0000040201ED
:1058600002040040404040400000010204000020CB
:1058700054545478007F4844443800384444442009
:1058800000384444487F00385454541800087E09B6
:1058900001020018A4A4A47C007F0804047800007E
:1058A000447D4000004080847D00007F102844003B
:1058B0000000417F4000007C04180478007C08044C
:1058C000047800384444443800FC24242418001888
:1058D000242418FC007C0804040800485454542074
:1058E00000043F444020003C4040207C001C2040FD
:1058F000201C003C4030403C004428102844001C40
:10590000A0A0A07C004464544C4414141414141437
:105910006F6C65645F7365745F706F730000000087
:1059200025660000585F57494454483E78000000FF
:105930002E2E2F4C69627261726965732F736565D3
:105940006B667265655F7065726970686572616CBF
:105950002F5345454B465245455F4F4C45442E63BA
:105960000000000028595F57494454482F38293E09
:1059700079000000000000000000000080842E413B
:1059800000080140000C01400010014000140140DB
:10599000003801400044004000480040004C0040F6
:1059A0000000C84200002F4300FF7F470000344240
:1059B00010D1FFFF02D0FFFF02D0FFFF00D0FFFF9A
:1059C00008D0FFFF08D0FFFFCECFFFFF00D0FFFFC2
:1059D00008D0FFFFCECFFFFF08D0FFFF00D0FFFFB2
:1059E000FCD0FFFFFCD0FFFFFCD0FFFFCECFFFFFBE
:1059F000A6DDFFFFCCDCFFFFA0DDFFFFD4DCFFFF57
:105A0000A0DDFFFF9ADCFFFFA0DDFFFFD4DCFFFF7E
:105A1000CCDCFFFFCCDCFFFF9ADCFFFFD4DCFFFF18
:105A2000DADCFFFFDADCFFFFDADCFFFF9ADCFFFFE6
:105A30008CDCFFFF8CDCFFFF60DDFFFF3CDEFFFF47
:105A400060DDFFFF5ADCFFFF60DDFFFF3CDEFFFF94
:105A50008CDCFFFF8CDCFFFF5ADCFFFF3CDEFFFF2E
:105A60009ADCFFFF9ADCFFFF9ADCFFFF5ADCFFFFA6
:105A7000A2DFFFFFF0DEFFFFF0DEFFFFEEDEFFFF45
:105A8000F4DEFFFFF4DEFFFFC4DEFFFFEEDEFFFF0C
:105A9000F4DEFFFFC4DEFFFFF4DEFFFFEEDEFFFFFC
:105AA00090DFFFFF90DFFFFF90DFFFFFC4DEFFFF0F
:105AB00000010202030303030404040404040404B5
:105AC0000505050505050505050505050505050586
:105AD0000606060606060606060606060606060666
